:0300000002006398
:08000600752341752200C200C0
:03001400020003E4
:0300030002005A9E
:20001700E52324A550037523413000051200DC80F8852322E52304F523D20080E3758920F0
:20003700758DFA759850D28EC2992000051200DC80F8852299C2002099051200DC80F8C222
:130057009980E790001712008802003402006A222222222B
:06000E00752100753A00A7
:20006A0075370090005A120088858236E5362432F98781D0D0D083D082D0F0D0E022740F3D
:20008A00B537047582FF22AF370FE537F4FE5F42378537387F00E538C313FE8E3860030FD7
:2000AA0080F474046FC454F0FE8581398E818F06EEC40354F8FE623AC082C083C021C02110
:2000CA00C021C021C03AEF2432F8A6818539818F8222C0E0C0F0C082C083C0D0E5362432AE
:2000EA00F8A681AF368F057E008D828E83A3750A048E0BC006C0051201BFAB82D005D006CC
:20010A008BF005F0750801750900800BE5082508F508E50933F509D5F0F2AA377C00E508A7
:20012A005202E5095204EA4C60168D828E83A3750A04750B001201BFAB82AC838B36801626
:20014A008D828E83A3750A04750B001201BFAD82AE838D07808FE5362432F98781D0D0D018
:08016A0083D082D0F0D0E02226
:20017200E50A450B60467A01E50A25E0F50AE50B334012F50BE582950AE583950B40030A4A
:2001920080E6C3E50B13F50BE50A13F50AC3E582950AF5F0E583950B4005F58385F082C3F3
:0D01B200E50B13F50BE50A13F50ADAE1225F
:2001BF00C2D5E58330E70DD2D5E4C39582F582E49583F583E50B30E70BE4C3950AF50AE472
:1601DF00950BF50B12017230D50BE4C39582F582E49583F583220A
:00000001FF
