:03000000020059A2
:02000600C20036
:03000E00020003EA
:03000300020050A8
:20001100752341E52324A550037523413000051200D280F8852322E52304F523D20080E345
:20003100758920758DFA759850D28EC2992000051200D280F8852299C2001099F080FB9056
:0F005100001112007E02003102006022222222E2
:06000800752100753A00AD
:2000600075370090005012007E858236E5362432F98781D0D0D083D082D0F0D0E022740F5B
:20008000B537047582FF22AF370FE537F4FE5F42378537387F00E538C313FE8E3860030FE1
:2000A00080F474046FC454F0FE8581398E818F06EEC40354F8FE623AC082C083C021C0211A
:2000C000C021C021C03AEF2432F8A6818539818F8222C0E0C0F0C082C083C0D0E5362432B8
:2000E000F8A6818536F005F07401800225E0D5F0FBF53BAF367408B53B07753B017F00804D
:2001000006E53B23F53B0FE537553B60E88F36E5362432F98781D0D0D083D082D0F0D0E077
:0101200022BC
:00000001FF
