:040000000200623266
:03000B0002006987
:02001100C2002B
:0300190002000ED4
:03000E0002005994
:20001C00752341E52324A550037523412000FDC2AF852322D200E52304F523D2AF80E44378
:20003C008920758DFA759850D28EC2993000FDC2AF852299C200D2AF1099F180FB90001C05
:11005C0012009302003B02006D222222220200EA329C
:06001300752100753A00A2
:20006D0075890075A882D28C753700900059120093858236E5362432F98781D0D0D083D0CC
:20008D0082D0F0D0E022C2AF740FB537047582FF22AF370FE537F45F42378537387F00E50E
:2000AD0038C313FE8E3860030F80F474046FC454F0FE8581398E818F06EEC40354F8FE624A
:2000CD003AC082C083C021C021C021C021C03AEF2432F8A681853981D2AF8F8222C2AFC04E
:2000ED00E0C0F0C082C083C0D0E5362432F8A6818536F005F07401800225E0D5F0FBF53B32
:20010D00AF367408B53B07753B017F00800FE53B25E0FEE53B235401FD4EF53B0FE5375505
:20012D003B60DF8F36E5362432F98781D0D0D083D082D0F0D0E0D2AF3222C0E0C0F0C082E5
:20014D00C083C0D0E5362432F8A6818536F005F07401800225E0D5F0FBF53BAF367408B58D
:20016D003B07753B017F00800FE53B25E0FEE53B235401FD4EF53B0FE537553B60DF8F367C
:12018D00E5362432F98781D0D0D083D082D0F0D0E02217
:00000001FF
