:040000000200D132F7
:03000B000200D818
:0300170002000ED6
:03000E000200A14C
:20001A00752541E52524A550037525418526E060FB20E7F815268528E060FB20E7F81528A6
:20003A00C2AFE52A2422F8A625E52A04F52AE521B52A03752A00E52504F525D2AF05280589
:20005A002780C0438920758DFA759850D28EC2998527E060FB20E7F815278528E060FB20F5
:20007A00E7F81528C2AFE52B2422F98799E52B04F52BE521B52B03752B0010990280FBD2B5
:20009A00AF0528052680C9752103752900C2AF852927D2AF752903C2AF852926D2AF7529F3
:2000BA0001C2AF852928D2AF752B00752A0090001A12010202005D0200DC22222222020197
:0200DA005A3298
:06001100752100753A00A4
:2000DC0075890075A882D28C7537009000A1120102858236E5362432F98781D0D0D083D0A5
:2000FC0082D0F0D0E022C2AF740FB537047582FF22AF370FE537F4FE5F42378537387F0086
:20011C00E538C313FE8E3860030F80F474046FC454F0FE8581398E818F06EEC40354F8FE57
:20013C00623AC082C083C021C021C021C021C03AEF2432F8A681853981D2AF8F8222C2AF3C
:20015C00C0E0C0F0C082C083C0D0E5362432F8A6818536F005F07401800225E0D5F0FBF53D
:20017C003BAF367408B53B07753B017F008006E53B23F53B0FE537553B60E88F36E53624A0
:20019C0032F98781D0D0D083D082D0F0D0E0D2AF3222C0E0C0F0C082C083C0D0E5362432B0
:2001BC00F8A6818536F005F07401800225E0D5F0FBF53BAF367408B53B07753B017F008070
:2001DC0006E53B23F53B0FE537553B60E88F36E5362432F98781D0D0D083D082D0F0D0E09B
:0101FC0022E0
:00000001FF
