:0400000002011A32AD
:03000B00020121CE
:0300170002000ED6
:03000E000200E409
:20001A00752541E52524A550037525418526E060FB20E7F815268528E060FB20E7F81528A6
:20003A00C2AFE52A2422F8A625E52A04F52AE521B52A03752A00E52504F525D2AF05280589
:20005A002780C0752C30E52C24C65003752C308526E060FB20E7F815268528E060FB20E720
:20007A00F81528C2AFE52A2422F8A62CE52A04F52AE521B52A03752A00E52C04F52CD2AF31
:20009A000528052780C0438920758DFA759850D28EC2998527E060FB20E7F815278528E0FE
:2000BA0060FB20E7F81528C2AFE52B2422F98799E52B04F52BE521B52B03752B0010990247
:2000DA0080FBD2AF0528052680C9752103752900C2AF852927D2AF752903C2AF852926D2B3
:2000FA00AF752901C2AF852928D2AF752B00752A0090001A12014E90005D12014E0200A096
:0B011A00020125222222220201F832FD
:06001100752100753A00A4
:2001250075890075A882D28C753700753C019000E412014E858236E5362432F98781D0D03D
:20014500D083D082D0F0D0E022C2AF740FB537047582FF22AF370FE537F4FE5F42378537D0
:20016500387F00E538C313FE8E3860030F80F474046FC454F0FE8581398E81753A008F06A7
:20018500EEC40354F8FE623AC082C083C021C021C021C021C03AEF2432F8A681853981D247
:2001A500AF8F8222C0E0C0F0C082C083C0D0E5362432F8A6818536F005F07401800225E0C7
:2001C500D5F0FBF53BAF367408B53B07753B017F008006E53B23F53B0FE537553B60E88F17
:2001E50036E5362432F98781D0D0D083D082D0F0D0E022C2AFC0E0C0F0C082C083C0D0E5C0
:20020500362432F8A6818536F005F07401800225E0D5F0FBF53B7408B53B05753B018005FB
:20022500E53B23F53BE537553B60EBE53660057536008010853C367401B53C05753C0280FF
:1902450003753C01E5362432F98781D0D0D083D082D0F0D0E0D2AF3222EF
:00000001FF
